{
  "address": "0x2E4d0c2767bcb437abE035c1FBFA00427e677CDA",
  "abi": [
    {
      "inputs": [
        {
          "internalType": "string",
          "name": "_name",
          "type": "string"
        },
        {
          "internalType": "string",
          "name": "_symbol",
          "type": "string"
        },
        {
          "internalType": "contract ISuperfluid",
          "name": "host",
          "type": "address"
        },
        {
          "internalType": "contract IConstantFlowAgreementV1",
          "name": "cfa",
          "type": "address"
        },
        {
          "internalType": "contract ISuperToken",
          "name": "acceptedToken",
          "type": "address"
        }
      ],
      "stateMutability": "nonpayable",
      "type": "constructor"
    },
    {
      "anonymous": false,
      "inputs": [
        {
          "indexed": true,
          "internalType": "address",
          "name": "owner",
          "type": "address"
        },
        {
          "indexed": true,
          "internalType": "address",
          "name": "approved",
          "type": "address"
        },
        {
          "indexed": true,
          "internalType": "uint256",
          "name": "tokenId",
          "type": "uint256"
        }
      ],
      "name": "Approval",
      "type": "event"
    },
    {
      "anonymous": false,
      "inputs": [
        {
          "indexed": true,
          "internalType": "address",
          "name": "owner",
          "type": "address"
        },
        {
          "indexed": true,
          "internalType": "address",
          "name": "operator",
          "type": "address"
        },
        {
          "indexed": false,
          "internalType": "bool",
          "name": "approved",
          "type": "bool"
        }
      ],
      "name": "ApprovalForAll",
      "type": "event"
    },
    {
      "anonymous": false,
      "inputs": [
        {
          "indexed": false,
          "internalType": "uint256",
          "name": "tokenId",
          "type": "uint256"
        },
        {
          "indexed": false,
          "internalType": "address",
          "name": "receiver",
          "type": "address"
        },
        {
          "indexed": false,
          "internalType": "int96",
          "name": "flowRate",
          "type": "int96"
        }
      ],
      "name": "NFTIssued",
      "type": "event"
    },
    {
      "anonymous": false,
      "inputs": [
        {
          "indexed": true,
          "internalType": "address",
          "name": "from",
          "type": "address"
        },
        {
          "indexed": true,
          "internalType": "address",
          "name": "to",
          "type": "address"
        },
        {
          "indexed": true,
          "internalType": "uint256",
          "name": "tokenId",
          "type": "uint256"
        }
      ],
      "name": "Transfer",
      "type": "event"
    },
    {
      "inputs": [],
      "name": "_acceptedToken",
      "outputs": [
        {
          "internalType": "contract ISuperToken",
          "name": "",
          "type": "address"
        }
      ],
      "stateMutability": "view",
      "type": "function"
    },
    {
      "inputs": [
        {
          "internalType": "address",
          "name": "to",
          "type": "address"
        },
        {
          "internalType": "uint256",
          "name": "tokenId",
          "type": "uint256"
        }
      ],
      "name": "approve",
      "outputs": [],
      "stateMutability": "nonpayable",
      "type": "function"
    },
    {
      "inputs": [
        {
          "internalType": "address",
          "name": "owner",
          "type": "address"
        }
      ],
      "name": "balanceOf",
      "outputs": [
        {
          "internalType": "uint256",
          "name": "",
          "type": "uint256"
        }
      ],
      "stateMutability": "view",
      "type": "function"
    },
    {
      "inputs": [
        {
          "internalType": "uint256",
          "name": "tokenId",
          "type": "uint256"
        }
      ],
      "name": "burnNFT",
      "outputs": [],
      "stateMutability": "nonpayable",
      "type": "function"
    },
    {
      "inputs": [
        {
          "internalType": "uint256",
          "name": "tokenId",
          "type": "uint256"
        },
        {
          "internalType": "int96",
          "name": "flowRate",
          "type": "int96"
        }
      ],
      "name": "editNFT",
      "outputs": [],
      "stateMutability": "nonpayable",
      "type": "function"
    },
    {
      "inputs": [],
      "name": "fixed_fund",
      "outputs": [
        {
          "internalType": "uint256",
          "name": "",
          "type": "uint256"
        }
      ],
      "stateMutability": "view",
      "type": "function"
    },
    {
      "inputs": [
        {
          "internalType": "uint256",
          "name": "",
          "type": "uint256"
        }
      ],
      "name": "flowRates",
      "outputs": [
        {
          "internalType": "int96",
          "name": "",
          "type": "int96"
        }
      ],
      "stateMutability": "view",
      "type": "function"
    },
    {
      "inputs": [
        {
          "internalType": "uint256",
          "name": "tokenId",
          "type": "uint256"
        }
      ],
      "name": "getApproved",
      "outputs": [
        {
          "internalType": "address",
          "name": "",
          "type": "address"
        }
      ],
      "stateMutability": "view",
      "type": "function"
    },
    {
      "inputs": [
        {
          "internalType": "address",
          "name": "owner",
          "type": "address"
        },
        {
          "internalType": "address",
          "name": "operator",
          "type": "address"
        }
      ],
      "name": "isApprovedForAll",
      "outputs": [
        {
          "internalType": "bool",
          "name": "",
          "type": "bool"
        }
      ],
      "stateMutability": "view",
      "type": "function"
    },
    {
      "inputs": [
        {
          "internalType": "address",
          "name": "receiver",
          "type": "address"
        },
        {
          "internalType": "int96",
          "name": "flowRate",
          "type": "int96"
        }
      ],
      "name": "issueNFT",
      "outputs": [],
      "stateMutability": "nonpayable",
      "type": "function"
    },
    {
      "inputs": [
        {
          "internalType": "uint256",
          "name": "tokenId1",
          "type": "uint256"
        },
        {
          "internalType": "uint256",
          "name": "tokenId2",
          "type": "uint256"
        }
      ],
      "name": "mergeStreams",
      "outputs": [],
      "stateMutability": "nonpayable",
      "type": "function"
    },
    {
      "inputs": [],
      "name": "name",
      "outputs": [
        {
          "internalType": "string",
          "name": "",
          "type": "string"
        }
      ],
      "stateMutability": "view",
      "type": "function"
    },
    {
      "inputs": [],
      "name": "nextId",
      "outputs": [
        {
          "internalType": "uint256",
          "name": "",
          "type": "uint256"
        }
      ],
      "stateMutability": "view",
      "type": "function"
    },
    {
      "inputs": [],
      "name": "owner",
      "outputs": [
        {
          "internalType": "address",
          "name": "",
          "type": "address"
        }
      ],
      "stateMutability": "view",
      "type": "function"
    },
    {
      "inputs": [
        {
          "internalType": "uint256",
          "name": "tokenId",
          "type": "uint256"
        }
      ],
      "name": "ownerOf",
      "outputs": [
        {
          "internalType": "address",
          "name": "",
          "type": "address"
        }
      ],
      "stateMutability": "view",
      "type": "function"
    },
    {
      "inputs": [
        {
          "internalType": "address",
          "name": "from",
          "type": "address"
        },
        {
          "internalType": "address",
          "name": "to",
          "type": "address"
        },
        {
          "internalType": "uint256",
          "name": "tokenId",
          "type": "uint256"
        }
      ],
      "name": "safeTransferFrom",
      "outputs": [],
      "stateMutability": "nonpayable",
      "type": "function"
    },
    {
      "inputs": [
        {
          "internalType": "address",
          "name": "from",
          "type": "address"
        },
        {
          "internalType": "address",
          "name": "to",
          "type": "address"
        },
        {
          "internalType": "uint256",
          "name": "tokenId",
          "type": "uint256"
        },
        {
          "internalType": "bytes",
          "name": "_data",
          "type": "bytes"
        }
      ],
      "name": "safeTransferFrom",
      "outputs": [],
      "stateMutability": "nonpayable",
      "type": "function"
    },
    {
      "inputs": [
        {
          "internalType": "address",
          "name": "operator",
          "type": "address"
        },
        {
          "internalType": "bool",
          "name": "approved",
          "type": "bool"
        }
      ],
      "name": "setApprovalForAll",
      "outputs": [],
      "stateMutability": "nonpayable",
      "type": "function"
    },
    {
      "inputs": [
        {
          "internalType": "uint256",
          "name": "_fund",
          "type": "uint256"
        }
      ],
      "name": "setFixedFund",
      "outputs": [],
      "stateMutability": "nonpayable",
      "type": "function"
    },
    {
      "inputs": [
        {
          "internalType": "uint256",
          "name": "tokenId",
          "type": "uint256"
        },
        {
          "internalType": "int96",
          "name": "newTokenFlowRate",
          "type": "int96"
        }
      ],
      "name": "splitStream",
      "outputs": [],
      "stateMutability": "nonpayable",
      "type": "function"
    },
    {
      "inputs": [
        {
          "internalType": "bytes4",
          "name": "interfaceId",
          "type": "bytes4"
        }
      ],
      "name": "supportsInterface",
      "outputs": [
        {
          "internalType": "bool",
          "name": "",
          "type": "bool"
        }
      ],
      "stateMutability": "view",
      "type": "function"
    },
    {
      "inputs": [],
      "name": "symbol",
      "outputs": [
        {
          "internalType": "string",
          "name": "",
          "type": "string"
        }
      ],
      "stateMutability": "view",
      "type": "function"
    },
    {
      "inputs": [
        {
          "internalType": "uint256",
          "name": "tokenId",
          "type": "uint256"
        }
      ],
      "name": "tokenURI",
      "outputs": [
        {
          "internalType": "string",
          "name": "",
          "type": "string"
        }
      ],
      "stateMutability": "view",
      "type": "function"
    },
    {
      "inputs": [
        {
          "internalType": "address",
          "name": "from",
          "type": "address"
        },
        {
          "internalType": "address",
          "name": "to",
          "type": "address"
        },
        {
          "internalType": "uint256",
          "name": "tokenId",
          "type": "uint256"
        }
      ],
      "name": "transferFrom",
      "outputs": [],
      "stateMutability": "nonpayable",
      "type": "function"
    },
    {
      "inputs": [
        {
          "internalType": "address",
          "name": "newOwner",
          "type": "address"
        }
      ],
      "name": "transferOwnership",
      "outputs": [],
      "stateMutability": "nonpayable",
      "type": "function"
    }
  ],
  "transactionHash": "0x34d24c5b869a5e43c1ce23eb631e8f8a65079ba09facf69ce16945018d0dac4e",
  "args": [
    "DAO CoFund",
    "COFUND",
    "0xeD5B5b32110c3Ded02a07c8b8e97513FAfb883B6",
    "0xF4C5310E51F6079F601a5fb7120bC72a70b96e2A",
    "0x745861AeD1EEe363b4AaA5F1994Be40b1e05Ff90"
  ],
  "solcInputHash": "0be504eb3af32f57a1c036570177239e",
  "bytecode": "0x60806040523480156200001157600080fd5b506040516200285c3803806200285c833981016040819052620000349162000280565b8451859085906200004d9060009060208501906200012f565b508051620000639060019060208401906200012f565b5050600880546001600160a01b038087166001600160a01b0319928316179283905560098054878316908416179055600a80548683169084161790556006805490921633179091556103e86007556000600c551615159050620000d657634e487b7160e01b600052600160045260246000fd5b6009546001600160a01b0316620000fd57634e487b7160e01b600052600160045260246000fd5b600a546001600160a01b03166200012457634e487b7160e01b600052600160045260246000fd5b505050505062000395565b8280546200013d9062000329565b90600052602060002090601f016020900481019282620001615760008555620001ac565b82601f106200017c57805160ff1916838001178555620001ac565b82800160010185558215620001ac579182015b82811115620001ac5782518255916020019190600101906200018f565b50620001ba929150620001be565b5090565b5b80821115620001ba5760008155600101620001bf565b600082601f830112620001e6578081fd5b81516001600160401b038082111562000203576200020362000366565b6040516020601f8401601f19168201810183811183821017156200022b576200022b62000366565b604052838252858401810187101562000242578485fd5b8492505b8383101562000265578583018101518284018201529182019162000246565b838311156200027657848185840101525b5095945050505050565b600080600080600060a0868803121562000298578081fd5b85516001600160401b0380821115620002af578283fd5b620002bd89838a01620001d5565b96506020880151915080821115620002d3578283fd5b50620002e288828901620001d5565b9450506040860151620002f5816200037c565b606087015190935062000308816200037c565b60808701519092506200031b816200037c565b809150509295509295909350565b6002810460018216806200033e57607f821691505b602082108114156200036057634e487b7160e01b600052602260045260246000fd5b50919050565b634e487b7160e01b600052604160045260246000fd5b6001600160a01b03811681146200039257600080fd5b50565b6124b780620003a56000396000f3fe608060405234801561001057600080fd5b50600436106101735760003560e01c806370a08231116100de578063a22cb46511610097578063c87b56dd11610071578063c87b56dd14610311578063e925b2ab14610324578063e985e9c514610337578063f2fde38b1461034a57610173565b8063a22cb465146102e3578063aefc5081146102f6578063b88d4fde146102fe57610173565b806370a082311461027a57806379bcb8df1461028d5780638da5cb5b146102ad5780638e34b4ae146102b557806393a30c44146102c857806395d89b41146102db57610173565b80632890e0d7116101305780632890e0d7146102115780632a081a061461022457806342842e0e146102375780634e5b3c7c1461024a57806361b8ce8c146102525780636352211e1461026757610173565b806301ffc9a71461017857806306fdde03146101a1578063081812fc146101b6578063095ea7b3146101d6578063116614b0146101eb57806323b872dd146101fe575b600080fd5b61018b61018636600461197c565b61035d565b6040516101989190611b6d565b60405180910390f35b6101a96103a5565b6040516101989190611c5a565b6101c96101c4366004611a27565b610437565b6040516101989190611b1c565b6101e96101e4366004611937565b610483565b005b6101e96101f9366004611a3f565b61051b565b6101e961020c3660046117f8565b6105ec565b6101e961021f366004611a27565b610624565b6101e961023236600461190c565b610699565b6101e96102453660046117f8565b6106cd565b6101c96106e8565b61025a6106f7565b6040516101989190612216565b6101c9610275366004611a27565b6106fd565b61025a6102883660046117ac565b610732565b6102a061029b366004611a27565b610776565b6040516101989190611c4c565b6101c961078d565b6101e96102c3366004611a27565b61079c565b6101e96102d6366004611a3f565b6107cb565b6101a96108d6565b6101e96102f13660046118d6565b6108e5565b61025a6109b3565b6101e961030c366004611833565b6109b9565b6101a961031f366004611a27565b6109f8565b6101e9610332366004611aa0565b610a7b565b61018b6103453660046117c6565b610b75565b6101e96103583660046117ac565b610ba3565b60006001600160e01b031982166380ac58cd60e01b148061038e57506001600160e01b03198216635b5e139f60e01b145b8061039d575061039d82610bef565b90505b919050565b6060600080546103b49061239f565b80601f01602080910402602001604051908101604052809291908181526020018280546103e09061239f565b801561042d5780601f106104025761010080835404028352916020019161042d565b820191906000526020600020905b81548152906001019060200180831161041057829003601f168201915b5050505050905090565b600061044282610c08565b6104675760405162461bcd60e51b815260040161045e90611fa0565b60405180910390fd5b506000908152600460205260409020546001600160a01b031690565b600061048e826106fd565b9050806001600160a01b0316836001600160a01b031614156104c25760405162461bcd60e51b815260040161045e906120b9565b806001600160a01b03166104d4610c25565b6001600160a01b031614806104f057506104f081610345610c25565b61050c5760405162461bcd60e51b815260040161045e90611e39565b6105168383610c29565b505050565b610524826106fd565b6001600160a01b0316336001600160a01b0316146105545760405162461bcd60e51b815260040161045e906121e1565b6000828152600b6020819052604090912054810b810b9082900b1261058b5760405162461bcd60e51b815260040161045e9061212a565b6000828152600b6020819052604082208054849391926105ad9185910b61230d565b92506101000a8154816001600160601b030219169083600b0b6001600160601b031602179055506105de3382610c97565b6105e83382610d7c565b5050565b6105fd6105f7610c25565b82610e66565b6106195760405162461bcd60e51b815260040161045e9061216d565b610516838383610eeb565b6006546001600160a01b0316331461064e5760405162461bcd60e51b815260040161045e906121be565b8061065881610c08565b6106745760405162461bcd60e51b815260040161045e90611c6d565b6000828152600b6020526040902080546001600160601b03191690556105e882611018565b6006546001600160a01b031633146106c35760405162461bcd60e51b815260040161045e906121be565b6105e88282610d7c565b610516838383604051806020016040528060008152506109b9565b600a546001600160a01b031681565b600c5481565b6000818152600260205260408120546001600160a01b03168061039d5760405162461bcd60e51b815260040161045e90611ee0565b60006001600160a01b03821661075a5760405162461bcd60e51b815260040161045e90611e96565b506001600160a01b031660009081526003602052604090205490565b600b60208190526000918252604090912054900b81565b6006546001600160a01b031681565b6006546001600160a01b031633146107c65760405162461bcd60e51b815260040161045e906121be565b600755565b6006546001600160a01b031633146107f55760405162461bcd60e51b815260040161045e906121be565b816107ff81610c08565b61081b5760405162461bcd60e51b815260040161045e90611c6d565b600082600b0b1361083e5760405162461bcd60e51b815260040161045e90611e02565b6000610849846106fd565b905082600b0b6000141561087b576000848152600b6020819052604090912054610876918391900b610c97565b6108a3565b6000848152600b60208190526040909120546108a391839161089e910b8661230d565b6110bf565b50506000918252600b6020819052604090922080549190920b6001600160601b03166001600160601b0319909116179055565b6060600180546103b49061239f565b6108ed610c25565b6001600160a01b0316826001600160a01b0316141561091e5760405162461bcd60e51b815260040161045e90611d7f565b806005600061092b610c25565b6001600160a01b03908116825260208083019390935260409182016000908120918716808252919093529120805460ff19169215159290921790915561096f610c25565b6001600160a01b03167f17307eab39ab6107e8899845ad3d59bd9653f200f220920489ca2b5937696c31836040516109a79190611b6d565b60405180910390a35050565b60075481565b6109ca6109c4610c25565b83610e66565b6109e65760405162461bcd60e51b815260040161045e9061216d565b6109f284848484611174565b50505050565b6060610a0382610c08565b610a1f5760405162461bcd60e51b815260040161045e90612035565b6000610a296111a7565b90506000815111610a495760405180602001604052806000815250610a74565b80610a53846111b9565b604051602001610a64929190611aed565b6040516020818303038152906040525b9392505050565b610a84826106fd565b6001600160a01b0316336001600160a01b031614610ab45760405162461bcd60e51b815260040161045e90612084565b610abd816106fd565b6001600160a01b0316336001600160a01b031614610aed5760405162461bcd60e51b815260040161045e90612084565b6000818152600b6020819052604080832054858452908320805491830b9390929091610b1c918591900b612293565b92506101000a8154816001600160601b030219169083600b0b6001600160601b03160217905550600b600082815260200190815260200160002060006101000a8154906001600160601b0302191690556105e881611018565b6001600160a01b03918216600090815260056020908152604080832093909416825291909152205460ff1690565b6006546001600160a01b03163314610bcd5760405162461bcd60e51b815260040161045e906121be565b600680546001600160a01b0319166001600160a01b0392909216919091179055565b6001600160e01b031981166301ffc9a760e01b14919050565b6000908152600260205260409020546001600160a01b0316151590565b3390565b600081815260046020526040902080546001600160a01b0319166001600160a01b0384169081179091558190610c5e826106fd565b6001600160a01b03167f8c5be1e5ebec7d5bd14f71427d1e84f3dd0314c0f7b2291e5b200ac8c7c3b92560405160405180910390a45050565b6001600160a01b038216301415610cad576105e8565b600954600a54604051631cd43d1160e31b81526000926001600160a01b039081169263e6a1e88892610ce9929091169030908890600401611bbf565b60806040518083038186803b158015610d0157600080fd5b505afa158015610d15573d6000803e3d6000fd5b505050506040513d601f19601f82011682018060405250810190610d399190611a63565b505091505081600b0b81600b0b1415610d5b57610d5630846112d4565b610516565b81600b0b81600b0b13156105165761051683610d77848461230d565b6113bb565b6001600160a01b038216301415610da55760405162461bcd60e51b815260040161045e906120fa565b600081600b0b13610dc85760405162461bcd60e51b815260040161045e90611e02565b600c80546000908152600b6020819052604080832080546001600160601b0319166001600160601b0387850b161790559254808352918390205492517f6e89a354929848553af9a2898855fe0486bb36807f1512041a8fcf8e19f4a58493610e369392879291900b9061221f565b60405180910390a1610e4a82600c5461144e565b6001600c6000828254610e5d91906122e1565b90915550505050565b6000610e7182610c08565b610e8d5760405162461bcd60e51b815260040161045e90611db6565b6000610e98836106fd565b9050806001600160a01b0316846001600160a01b03161480610ed35750836001600160a01b0316610ec884610437565b6001600160a01b0316145b80610ee35750610ee38185610b75565b949350505050565b826001600160a01b0316610efe826106fd565b6001600160a01b031614610f245760405162461bcd60e51b815260040161045e90611fec565b6001600160a01b038216610f4a5760405162461bcd60e51b815260040161045e90611d3b565b610f5583838361152d565b610f60600082610c29565b6001600160a01b0383166000908152600360205260408120805460019290610f8990849061235c565b90915550506001600160a01b0382166000908152600360205260408120805460019290610fb79084906122e1565b909155505060008181526002602052604080822080546001600160a01b0319166001600160a01b0386811691821790925591518493918716917fddf252ad1be2c89b69c2b068fc378daa952ba7f163c4a11628f55a4df523b3ef91a4505050565b6000611023826106fd565b90506110318160008461152d565b61103c600083610c29565b6001600160a01b038116600090815260036020526040812080546001929061106590849061235c565b909155505060008281526002602052604080822080546001600160a01b0319169055518391906001600160a01b038416907fddf252ad1be2c89b69c2b068fc378daa952ba7f163c4a11628f55a4df523b3ef908390a45050565b600954600a54604051631cd43d1160e31b81526000926001600160a01b039081169263e6a1e888926110fb929091169030908890600401611bbf565b60806040518083038186803b15801561111357600080fd5b505afa158015611127573d6000803e3d6000fd5b505050506040513d601f19601f8201168201806040525081019061114b9190611a63565b505091505080600b0b6000141561116657610d56838361161b565b61051683610d778484612293565b61117f848484610eeb565b61118b84848484611674565b6109f25760405162461bcd60e51b815260040161045e90611cb2565b60408051602081019091526000815290565b6060816111de57506040805180820190915260018152600360fc1b60208201526103a0565b8160005b811561120857806111f2816123da565b91506112019050600a836122f9565b91506111e2565b60008167ffffffffffffffff81111561123157634e487b7160e01b600052604160045260246000fd5b6040519080825280601f01601f19166020018201604052801561125b576020820181803683370190505b5090505b8415610ee35761127060018361235c565b915061127d600a866123f5565b6112889060306122e1565b60f81b8183815181106112ab57634e487b7160e01b600052603260045260246000fd5b60200101906001600160f81b031916908160001a9053506112cd600a866122f9565b945061125f565b600854600954600a546040805160008152602081019091526001600160a01b03938416936339255d5b93811692635a5999e360e11b9261131f92909116908890889060448101611be2565b60408051601f198184030181529181526020820180516001600160e01b03166001600160e01b03199485161790525160e085901b90921682526113659291600401611b78565b600060405180830381600087803b15801561137f57600080fd5b505af1158015611393573d6000803e3d6000fd5b505050506040513d6000823e601f3d908101601f1916820160405261051691908101906119b4565b6001600160a01b0382163014806113d957506001600160a01b038216155b156113e3576105e8565b600854600954600a546001600160a01b03928316926339255d5b928116916328104d3160e11b9116868660005b6040519080825280601f01601f19166020018201604052801561143a576020820181803683370190505b5060405160240161131f9493929190611c16565b6001600160a01b0382166114745760405162461bcd60e51b815260040161045e90611f6b565b61147d81610c08565b1561149a5760405162461bcd60e51b815260040161045e90611d04565b6114a66000838361152d565b6001600160a01b03821660009081526003602052604081208054600192906114cf9084906122e1565b909155505060008181526002602052604080822080546001600160a01b0319166001600160a01b03861690811790915590518392907fddf252ad1be2c89b69c2b068fc378daa952ba7f163c4a11628f55a4df523b3ef908290a45050565b600854604051631e51d6a760e11b81526001600160a01b0390911690633ca3ad4e9061155d908590600401611b1c565b60206040518083038186803b15801561157557600080fd5b505afa158015611589573d6000803e3d6000fd5b505050506040513d601f19601f820116820180604052508101906115ad9190611960565b15806115c157506001600160a01b03821630145b6115dd5760405162461bcd60e51b815260040161045e90611f29565b6000818152600b60208190526040909120546115fc918591900b610c97565b6000818152600b6020819052604090912054610516918491900b6110bf565b6001600160a01b03821630148061163957506001600160a01b038216155b15611643576105e8565b600854600954600a546001600160a01b03928316926339255d5b9281169163317e182f60e11b911686866000611410565b6000611688846001600160a01b031661178f565b1561178457836001600160a01b031663150b7a026116a4610c25565b8786866040518563ffffffff1660e01b81526004016116c69493929190611b30565b602060405180830381600087803b1580156116e057600080fd5b505af1925050508015611710575060408051601f3d908101601f1916820190925261170d91810190611998565b60015b61176a573d80801561173e576040519150601f19603f3d011682016040523d82523d6000602084013e611743565b606091505b5080516117625760405162461bcd60e51b815260040161045e90611cb2565b805181602001fd5b6001600160e01b031916630a85bd0160e11b149050610ee3565b506001949350505050565b3b151590565b80356001600160a01b03811681146103a057600080fd5b6000602082840312156117bd578081fd5b610a7482611795565b600080604083850312156117d8578081fd5b6117e183611795565b91506117ef60208401611795565b90509250929050565b60008060006060848603121561180c578081fd5b61181584611795565b925061182360208501611795565b9150604084013590509250925092565b60008060008060808587031215611848578081fd5b61185185611795565b935061185f60208601611795565b925060408501359150606085013567ffffffffffffffff811115611881578182fd5b8501601f81018713611891578182fd5b80356118a461189f8261226b565b612241565b8181528860208385010111156118b8578384fd5b81602084016020830137908101602001929092525092959194509250565b600080604083850312156118e8578182fd5b6118f183611795565b915060208301356119018161244b565b809150509250929050565b6000806040838503121561191e578182fd5b61192783611795565b9150602083013561190181612472565b60008060408385031215611949578182fd5b61195283611795565b946020939093013593505050565b600060208284031215611971578081fd5b8151610a748161244b565b60006020828403121561198d578081fd5b8135610a748161245c565b6000602082840312156119a9578081fd5b8151610a748161245c565b6000602082840312156119c5578081fd5b815167ffffffffffffffff8111156119db578182fd5b8201601f810184136119eb578182fd5b80516119f961189f8261226b565b818152856020838501011115611a0d578384fd5b611a1e826020830160208601612373565b95945050505050565b600060208284031215611a38578081fd5b5035919050565b60008060408385031215611a51578182fd5b82359150602083013561190181612472565b60008060008060808587031215611a78578182fd5b845193506020850151611a8a81612472565b6040860151606090960151949790965092505050565b60008060408385031215611ab2578182fd5b50508035926020909101359150565b60008151808452611ad9816020860160208601612373565b601f01601f19169290920160200192915050565b60008351611aff818460208801612373565b835190830190611b13818360208801612373565b01949350505050565b6001600160a01b0391909116815260200190565b6001600160a01b0385811682528416602082015260408101839052608060608201819052600090611b6390830184611ac1565b9695505050505050565b901515815260200190565b6001600160a01b0383168152606060208201819052600090611b9c90830184611ac1565b8281036040938401526002815261060f60f31b6020820152919091019392505050565b6001600160a01b0393841681529183166020830152909116604082015260600190565b6001600160a01b038581168252848116602083015283166040820152608060608201819052600090611b6390830184611ac1565b6001600160a01b03858116825284166020820152600b83900b6040820152608060608201819052600090611b6390830184611ac1565b600b9190910b815260200190565b600060208252610a746020830184611ac1565b60208082526025908201527f746f6b656e20646f65736e2774206578697374206f7220686173206265656e20604082015264189d5c9b9d60da1b606082015260800190565b60208082526032908201527f4552433732313a207472616e7366657220746f206e6f6e20455243373231526560408201527131b2b4bb32b91034b6b83632b6b2b73a32b960711b606082015260800190565b6020808252601c908201527f4552433732313a20746f6b656e20616c7265616479206d696e74656400000000604082015260600190565b60208082526024908201527f4552433732313a207472616e7366657220746f20746865207a65726f206164646040820152637265737360e01b606082015260800190565b60208082526019908201527f4552433732313a20617070726f766520746f2063616c6c657200000000000000604082015260600190565b6020808252602c908201527f4552433732313a206f70657261746f7220717565727920666f72206e6f6e657860408201526b34b9ba32b73a103a37b5b2b760a11b606082015260800190565b6020808252601a908201527f666c6f7752617465206d75737420626520706f73697469766521000000000000604082015260600190565b60208082526038908201527f4552433732313a20617070726f76652063616c6c6572206973206e6f74206f7760408201527f6e6572206e6f7220617070726f76656420666f7220616c6c0000000000000000606082015260800190565b6020808252602a908201527f4552433732313a2062616c616e636520717565727920666f7220746865207a65604082015269726f206164647265737360b01b606082015260800190565b60208082526029908201527f4552433732313a206f776e657220717565727920666f72206e6f6e657869737460408201526832b73a103a37b5b2b760b91b606082015260800190565b60208082526022908201527f4e65772072656365697665722063616e206e6f74206265206120737570657241604082015261070760f41b606082015260800190565b6020808252818101527f4552433732313a206d696e7420746f20746865207a65726f2061646472657373604082015260600190565b6020808252602c908201527f4552433732313a20617070726f76656420717565727920666f72206e6f6e657860408201526b34b9ba32b73a103a37b5b2b760a11b606082015260800190565b60208082526029908201527f4552433732313a207472616e73666572206f6620746f6b656e2074686174206960408201526839903737ba1037bbb760b91b606082015260800190565b6020808252602f908201527f4552433732314d657461646174613a2055524920717565727920666f72206e6f60408201526e3732bc34b9ba32b73a103a37b5b2b760891b606082015260800190565b6020808252818101527f43616e2774206564697420736f6d656f6e6520656c736527732073747265616d604082015260600190565b60208082526021908201527f4552433732313a20617070726f76616c20746f2063757272656e74206f776e656040820152603960f91b606082015260800190565b602080825260169082015275497373756520746f2061206e6577206164647265737360501b604082015260600190565b60208082526023908201527f6e657720666c6f77206d757374206265206c657373207468616e206f6c6420666040820152626c6f7760e81b606082015260800190565b60208082526031908201527f4552433732313a207472616e736665722063616c6c6572206973206e6f74206f6040820152701ddb995c881b9bdc88185c1c1c9bdd9959607a1b606082015260800190565b6020808252600990820152682727aa2fa7aba722a960b91b604082015260600190565b6020808252818101527f63616e2774206564697420736f6d656f6e6520656c736527732073747265616d604082015260600190565b90815260200190565b9283526001600160a01b03919091166020830152600b0b604082015260600190565b60405181810167ffffffffffffffff8111828210171561226357612263612435565b604052919050565b600067ffffffffffffffff82111561228557612285612435565b50601f01601f191660200190565b600081600b0b83600b0b8282128260016001605f1b03038213811516156122bc576122bc612409565b8260016001605f1b03190382128116156122d8576122d8612409565b50019392505050565b600082198211156122f4576122f4612409565b500190565b6000826123085761230861241f565b500490565b600081600b0b83600b0b8281128160016001605f1b03190183128115161561233757612337612409565b8160016001605f1b0301831381161561235257612352612409565b5090039392505050565b60008282101561236e5761236e612409565b500390565b60005b8381101561238e578181015183820152602001612376565b838111156109f25750506000910152565b6002810460018216806123b357607f821691505b602082108114156123d457634e487b7160e01b600052602260045260246000fd5b50919050565b60006000198214156123ee576123ee612409565b5060010190565b6000826124045761240461241f565b500690565b634e487b7160e01b600052601160045260246000fd5b634e487b7160e01b600052601260045260246000fd5b634e487b7160e01b600052604160045260246000fd5b801515811461245957600080fd5b50565b6001600160e01b03198116811461245957600080fd5b80600b0b811461245957600080fdfea2646970667358221220340dbbf4998bf2e98528961fda7c9d5db954c72b721732e10fe6b534ae85654564736f6c63430008000033",
  "devdoc": {
    "kind": "dev",
    "methods": {
      "approve(address,uint256)": {
        "details": "See {IERC721-approve}."
      },
      "balanceOf(address)": {
        "details": "See {IERC721-balanceOf}."
      },
      "getApproved(uint256)": {
        "details": "See {IERC721-getApproved}."
      },
      "isApprovedForAll(address,address)": {
        "details": "See {IERC721-isApprovedForAll}."
      },
      "name()": {
        "details": "See {IERC721Metadata-name}."
      },
      "ownerOf(uint256)": {
        "details": "See {IERC721-ownerOf}."
      },
      "safeTransferFrom(address,address,uint256)": {
        "details": "See {IERC721-safeTransferFrom}."
      },
      "safeTransferFrom(address,address,uint256,bytes)": {
        "details": "See {IERC721-safeTransferFrom}."
      },
      "setApprovalForAll(address,bool)": {
        "details": "See {IERC721-setApprovalForAll}."
      },
      "supportsInterface(bytes4)": {
        "details": "See {IERC165-supportsInterface}."
      },
      "symbol()": {
        "details": "See {IERC721Metadata-symbol}."
      },
      "tokenURI(uint256)": {
        "details": "See {IERC721Metadata-tokenURI}."
      },
      "transferFrom(address,address,uint256)": {
        "details": "See {IERC721-transferFrom}."
      }
    },
    "version": 1
  },
  "userdoc": {
    "kind": "user",
    "methods": {},
    "version": 1
  },
  "storageLayout": {
    "storage": [
      {
        "astId": 103,
        "contract": "contracts/CoFund.sol:CoFund",
        "label": "_name",
        "offset": 0,
        "slot": "0",
        "type": "t_string_storage"
      },
      {
        "astId": 105,
        "contract": "contracts/CoFund.sol:CoFund",
        "label": "_symbol",
        "offset": 0,
        "slot": "1",
        "type": "t_string_storage"
      },
      {
        "astId": 109,
        "contract": "contracts/CoFund.sol:CoFund",
        "label": "_owners",
        "offset": 0,
        "slot": "2",
        "type": "t_mapping(t_uint256,t_address)"
      },
      {
        "astId": 113,
        "contract": "contracts/CoFund.sol:CoFund",
        "label": "_balances",
        "offset": 0,
        "slot": "3",
        "type": "t_mapping(t_address,t_uint256)"
      },
      {
        "astId": 117,
        "contract": "contracts/CoFund.sol:CoFund",
        "label": "_tokenApprovals",
        "offset": 0,
        "slot": "4",
        "type": "t_mapping(t_uint256,t_address)"
      },
      {
        "astId": 123,
        "contract": "contracts/CoFund.sol:CoFund",
        "label": "_operatorApprovals",
        "offset": 0,
        "slot": "5",
        "type": "t_mapping(t_address,t_mapping(t_address,t_bool))"
      },
      {
        "astId": 3659,
        "contract": "contracts/CoFund.sol:CoFund",
        "label": "owner",
        "offset": 0,
        "slot": "6",
        "type": "t_address"
      },
      {
        "astId": 3661,
        "contract": "contracts/CoFund.sol:CoFund",
        "label": "fixed_fund",
        "offset": 0,
        "slot": "7",
        "type": "t_uint256"
      },
      {
        "astId": 3664,
        "contract": "contracts/CoFund.sol:CoFund",
        "label": "_host",
        "offset": 0,
        "slot": "8",
        "type": "t_contract(ISuperfluid)3272"
      },
      {
        "astId": 3667,
        "contract": "contracts/CoFund.sol:CoFund",
        "label": "_cfa",
        "offset": 0,
        "slot": "9",
        "type": "t_contract(IConstantFlowAgreementV1)1942"
      },
      {
        "astId": 3670,
        "contract": "contracts/CoFund.sol:CoFund",
        "label": "_acceptedToken",
        "offset": 0,
        "slot": "10",
        "type": "t_contract(ISuperToken)2738"
      },
      {
        "astId": 3674,
        "contract": "contracts/CoFund.sol:CoFund",
        "label": "flowRates",
        "offset": 0,
        "slot": "11",
        "type": "t_mapping(t_uint256,t_int96)"
      },
      {
        "astId": 3676,
        "contract": "contracts/CoFund.sol:CoFund",
        "label": "nextId",
        "offset": 0,
        "slot": "12",
        "type": "t_uint256"
      }
    ],
    "types": {
      "t_address": {
        "encoding": "inplace",
        "label": "address",
        "numberOfBytes": "20"
      },
      "t_bool": {
        "encoding": "inplace",
        "label": "bool",
        "numberOfBytes": "1"
      },
      "t_contract(IConstantFlowAgreementV1)1942": {
        "encoding": "inplace",
        "label": "contract IConstantFlowAgreementV1",
        "numberOfBytes": "20"
      },
      "t_contract(ISuperToken)2738": {
        "encoding": "inplace",
        "label": "contract ISuperToken",
        "numberOfBytes": "20"
      },
      "t_contract(ISuperfluid)3272": {
        "encoding": "inplace",
        "label": "contract ISuperfluid",
        "numberOfBytes": "20"
      },
      "t_int96": {
        "encoding": "inplace",
        "label": "int96",
        "numberOfBytes": "12"
      },
      "t_mapping(t_address,t_bool)": {
        "encoding": "mapping",
        "key": "t_address",
        "label": "mapping(address => bool)",
        "numberOfBytes": "32",
        "value": "t_bool"
      },
      "t_mapping(t_address,t_mapping(t_address,t_bool))": {
        "encoding": "mapping",
        "key": "t_address",
        "label": "mapping(address => mapping(address => bool))",
        "numberOfBytes": "32",
        "value": "t_mapping(t_address,t_bool)"
      },
      "t_mapping(t_address,t_uint256)": {
        "encoding": "mapping",
        "key": "t_address",
        "label": "mapping(address => uint256)",
        "numberOfBytes": "32",
        "value": "t_uint256"
      },
      "t_mapping(t_uint256,t_address)": {
        "encoding": "mapping",
        "key": "t_uint256",
        "label": "mapping(uint256 => address)",
        "numberOfBytes": "32",
        "value": "t_address"
      },
      "t_mapping(t_uint256,t_int96)": {
        "encoding": "mapping",
        "key": "t_uint256",
        "label": "mapping(uint256 => int96)",
        "numberOfBytes": "32",
        "value": "t_int96"
      },
      "t_string_storage": {
        "encoding": "bytes",
        "label": "string",
        "numberOfBytes": "32"
      },
      "t_uint256": {
        "encoding": "inplace",
        "label": "uint256",
        "numberOfBytes": "32"
      }
    }
  }
}